:020000040800F2
:1000000008C8002061BE0008A9BD0008ABBD0008FB
:10001000ADBD0008AFBD0008B1BD00080000000084
:10002000000000000000000000000000B3BD000858
:10003000B5BD000800000000B7BD0008B9BD00084C
:10004000F1BE0008F5BE0008F9BE0008FDBE0008BC
:1000500001BF000805BF000809BF00080DBF000868
:1000600011BF000815BF000819BF00081DBF000818
:1000700021BF000825BF000829BF00082DBF0008C8
:1000800031BF000835BF000839BF00083DBF000878
:1000900041BF000845BF000849BF00084DBF000828
:1000A00051BF0008BDBD000855BF000859BF00087A
:1000B0005DBF000861BF000865BF000869BF000898
:1000C0006DBF000871BF000875BF000879BF000848
:1000D0007DBF000881BF000885BF000889BF0008F8
:1000E0008DBF000891BF000895BF000899BF0008A8
:1000F0009DBF0008A1BF0008A5BF0008A9BF000858
:10010000ADBF0008B1BF0008B5BF0008B9BF000807
:10011000BDBF0008C1BF0008C5BF0008C9BF0008B7
:10012000CDBF0008D1BF0008D5BF0008D9BF000867
:10013000DDBF0008E1BF0008E5BF0008E9BF000817
:10014000EDBF0008F1BF0008F5BF0008F9BF0008C7
:10015000FDBF000801C0000805C0000809C0000874
:100160000DC0000811C0000815C0000819C0000823
:100170001DC0000821C0000825C0000800000000C4
:1001800029C000082DC0000831C0000835C0000893
:1001900039C000083DC0000841C0000845C0000843
:1001A00049C000084DC0000851C000082DE9F84FB3
:1001B000050084B0DFF8D4BA06D10BF128038322FE
:1001C0000FF6940100F0AEFC6C68DFF8C47A3C6274
:1001D000688914283FDBDFF8BC8AD8F80010D8F80B
:1001E000140001F0EBF9002840F02D8498F8140079
:1001F00000F0F000E02800F02684A08901F0F7F973
:10020000000B81001429A4BF2889884223DBA1F1B7
:1002100014060020BE8278626A898A4204DBFE826C
:10022000284601F07FFB35E0286830B90BF1280340
:10023000C2220FF63C0100F075FC1421284601F0A3
:1002400071FB6989F9822846761A01F06BFB2868F0
:100250004189B6B2B142C0F2F68342687A62314651
:1002600001F060FB298968898E1B2E8130B10BF16A
:100270002803DF220FF6080100F054FC29682889C2
:100280000A89904206D00BF12803E0220FF2FC719C
:1002900000F048FC208801F0AAF92080608801F075
:1002A000A6F96080606801F0A8F96060B8623C6AF5
:1002B000A06801F0A2F9A060F862D7F82090B9F820
:1002C0000E0001F094F9A9F80E00B9F80C0001F045
:1002D0008EF900F03F0A87F800A01AF0030F288972
:1002E000B88305D0411CB98389B28142C0F0AB8389
:1002F000DFF8A4090468002601E02646E468002C23
:1003000000F07E80207D30B90BF12803FB220BF139
:10031000640100F007FC207D0A2806D10BF12803B8
:10032000FC220BF18C0100F0FDFB207D012806D1A1
:100330000BF12803FD220BF1B80100F0F3FB207A4A
:1003400010B100F0E7FBD8D1208BB9F8001088423B
:1003500002BFE08AB9F802108842CED16068D8F8AE
:100360001010884202BF2068D8F814108842C4D107
:10037000E068A04207D10BF1280340F20D120BF107
:10038000E00100F0CFFB36B1E068DFF80C19F06057
:100390000A68E2600C60E168A14207D10BF1280312
:1003A00040F215120BF5867100F0BCFB002078605E
:1003B0002989B981BD605FEA0A71C7F81090386376
:1003C0007870788303D5687B40F00100687304F18E
:1003D0004405686B00280AD0204602F081FA10F12B
:1003E0000D0F06D0686B00281CBFB88B002800F0EA
:1003F000FF80608D002802D1204603F0B5FA00E3AB
:10040000DFF89808046800E0E468002C4DD0207DF7
:100410000A2807D00BF1280340F21F120BF59C713C
:1004200000F080FB207A10B100F074FBECD1B9F839
:100430000030208B984202BFB9F80260E08AB042D7
:10044000E2D16168D8F81000814202BF2168D8F873
:1004500014008142D8D15FEA4A71204675D4B98B25
:100460005FEA8A7213D5BC6A426AB4EB020C15D4F7
:10047000028DACEB0202002A10DC0293621808F134
:1004800010030093019608F11403F96AD9E25FEAB8
:10049000CA7203D5DFF808381C680462002954D0FA
:1004A000418B41F0020141839FE0DFF8F837186883
:1004B000002201E00246C068002800F0AC82017A08
:1004C00039B1D8F8044094F83060761CF6B2B142E5
:1004D000F0D1B9F80260C18AB142EBD10168D8F815
:1004E0001440A14218BF002818BF0029E2D10446D9
:1004F00022B1E068D0601968E1601C605FEA4A7070
:1005000023D4D7F828B05FEACA600ED5B9F8001036
:10051000B88B029108F1100200920BEB0002F96A0D
:10052000019608F1140320468BE25FEA8A700CD52D
:10053000607D02F097FA060008D1A369002B04D071
:1005400020694FF0FF32002198477CE2D8F8140070
:100550003060D8F81010716006F16008E08AF0820F
:100560000320B9F80010307531830BF1010070627F
:10057000F062304602F090FBB06530657064F06563
:10058000ABF10100706520693061C8F81C40607AE9
:1005900000F00C007072207A3072DFF8FC060168FF
:1005A000F160066003F094FBDFF8FC160120087090
:1005B000304600F02DFF386AC089A8F80000A8F87E
:1005C0000200301D03F042FC0146708E321D02F025
:1005D00075FB70861221304602F0D6FD20B1002155
:1005E000304601F04BFE2EE2304602F066FE2AE273
:1005F0005FEA4A707C63DFF8A06625D5207D02287B
:1006000004D1F86AE968884216D10CE0626AB96AD6
:10061000914212D138B90BF128034FF44E720FF208
:100620008C4100F07FFA787840F0080078704FF63F
:10063000FE70618B0140618371E1891AFCD4208DC9
:10064000091A0029F8DC5BE15FEA8A7004D5207D95
:10065000022818BF0328F6D1A07EC10603D4DFF814
:1006600040060268226204F19A0000214170017084
:10067000204600F0CDFEBA6AB88B97F800E03B6ADE
:10068000F96A101803900EF0100094F814A0AAF163
:10069000020ABAF1070F41F21C1919D8DFE81AF063
:1006A000C70074006E004B0043006E001900080084
:1006B00000F021FA3878C1060AD5F86AE96888425C
:1006C00004BFA86A002803D1787840F01000787041
:1006D00025E100F010FA3878C106F9D5F86AE96822
:1006E000884204BFA86A0028F2D1204602F04AFAE4
:1006F0003068A04230D000E0084620B1C168A14275
:10070000FAD1E168C1600020DFF89C25E06001219A
:1007100011700A202075DFF884050168E16004602B
:1007200003F0D6FAFBE000F0E6F978788106F9D517
:1007300000F0DCF9D9E700F0DEF97A783878F96A68
:10074000930600F010000FD550B1EA68914204BF43
:10075000A86A002804D1EBE73068C1683160D2E7AD
:1007600000F0C4F9082152E000280CD0EA68914258
:1007700004BFA86A002806D1062148E000F0BBF9B2
:100780007878810640D4CAE0002845D02868081A45
:10079000401E3ED4E868081A00283ADC042121757E
:1007A000A86B002816D0806938B90BF128034FF4E4
:1007B0006A720FF2183100F0B5F9A86B8369002B4B
:1007C00008D0206900222146984720B110F10D0F72
:1007D00000F01781D9E000F08EF9788B08B1401E47
:1007E0007883608E42004A458CBF13464B46810099
:1007F000994238BF800003D34A458CBF4000484629
:10080000A8807878810603D500F070F9072121755A
:1008100085E000F072F982E05FEA8E70FBD5616AD4
:10082000491E8A427BD1204602F031FF77E00EF06C
:10083000120EBEF1120F02BFD5F800C00CF1010C70
:10084000614560D1501C6062E0622960521ED88907
:10085000A883E8832A6104202075201D03F0F6FA9E
:100860000146608E221D02F029FA420060864A4548
:100870008CBF13464B468100994238BF800003D39A
:100880004A458CBF40004846A880688C38B90BF1B7
:1008900028034FF45B720FF6244100F043F9688C93
:1008A000D5F82C80411EB8F1000F698410D1D5F81D
:1008B0002880B8F1000F07D10BF128034FF45D72C7
:1008C0000FF6104100F02EF9D8F80000A86202E0FF
:1008D000D8F80010E962404602F04CF8E86A0028B7
:1008E0000EBF4FF0FF30002084F8420020866B6C72
:1008F00033B1206900222146984710F10D0F1ED018
:1009000000F0F4F80BE050B100F0F7F894F8420072
:10091000062804DA00212186204602F0A2FE78781B
:1009200001070DD5EA6C1AB120696FF00D019047EF
:100930002146304602F056F9204601F013FB60E0F4
:100940007A8B4AB1EB6B2BB120692146984710F1A5
:100950000D0F56D000207883204600F0E6F80028DE
:100960004FD13E6B6FF00C084EB3686B38B10BF192
:1009700028034FF4F3720FF6283100F0D3F8A07E6D
:10098000C10606D5304600F0FEFF204601F0F0FC1F
:1009900037E0D5F840C0BCF1000F05D02069002336
:1009A00032462146E04705E000233246214600203A
:1009B00002F00BF8404524D008B1386B68637878B2
:1009C000810615D5686B20B1417B41F02001417350
:1009D0000EE0208DB0F5006F1CBF401C20852D6CF3
:1009E00035B12069002300222146A847404508D0A0
:1009F00000207863204600F098F810B9204602F0F5
:100A00005CFC002078633863B86810B300F0BBFF6B
:100A10000020B8601DE0B9F80C0000F0E8FD4007C8
:100A200011D4B9F80010029108F11002B9F80200CF
:100A3000B98B0190009208F11403B86A4218F96A60
:100A4000002002F04EFF284605B0BDE8F04F00F050
:100A50009ABF05B0BDE8F08F7463705F696E707502
:100A6000743A20696E76616C696420706275660004
:100A7000702D3E6E65787420213D204E554C4C0003
:100A8000702D3E6C656E203D3D203000702D3E7413
:100A90006F745F6C656E203D3D20702D3E6E6578F5
:100AA000742D3E746F745F6C656E00007463705FCC
:100AB000696E7075743A207063622D3E7374617450
:100AC0006520213D20434C4F534544007063622D07
:100AD0003E6C697374656E65722D3E61636365700B
:100AE0007420213D204E554C4C000000608B40F09E
:100AF0000200608370472046DCE0188802902046A0
:100B00005A88019208F11003009308F11403039A24
:100B100002F0E7BED8F8041091F83020521CD2B28F
:100B200090427047584603F00FBB10B5040008D13F
:100B3000564800F1280340F25A2200F5B47103F040
:100B400003FB534A5078C10612D5A07EC10606D4D5
:100B5000D4F890201AB120696FF00E019047214619
:100B60004D4802F03FF8204601F0FCF9012010BD8D
:100B7000002010BD70B505000C4608D1434800F1B7
:100B8000280340F21F4200F5C87103F0DDFAE8685F
:100B900000F08DF8C00713D5204601F0E2FE0024D6
:100BA00024E000F084F8C00706D5012000F01FFD06
:100BB000E9688A89104388812046246801F0DAFEBA
:100BC000A4B1E06832494368896A2A8926898A186B
:100BD000D31A9B1BE5D54368D21A002A06DD42686A
:100BE0006868511A298189B200F01DFE2C6070BD21
:100BF0002DE9F04780460C461D46DFF89090244FC3
:100C0000002C40D0E168486800F0F7FC0646E06838
:100C100000F04DF810F0030018BF01202189FA6A96
:100C200071184018801A01282DDA26462468706849
:100C300000F002FF8246B8F86600504507DA09F175
:100C4000280340F2574209F5DC7100F0CCFBB8F8FC
:100C50006600A0EB0A00A8F86600798B308941187D
:100C60007983304601F086FEB8F866000028C7D0C8
:100C7000002CC5D13DB90FF6700109F1280340F2EF
:100C8000624200F0B0FB2046BDE8F0875CAC000893
:100C9000E886002088870020200000202400002013
:100CA000140000201C00002010000020286980890A
:100CB00000F09DBC2DE9F0470600DFF8D89707D17A
:100CC00009F1280340F27B420FF63C0100F08BFB58
:100CD000307D042807DA09F1280340F27C420FF640
:100CE000440100F080FBDFF8B0572878C10606F118
:100CF00044074FF6FF7840F10A81D7F810E0A86A60
:100D0000D7F814C0BC8B2B6AE96ABEEB000A0CEB67
:100D1000040209D402D1BCEB010E05D48C450ED1DE
:100D2000B3F80EC064450AD2DB89B6F862C01C462F
:100D3000644538BF6446FC83BB833861796106F142
:100D400042033C68081B002828DCA88B002801BF50
:100D50007869B7F81CC0604490421CD1B6F93000E5
:100D6000002818D48C4216D15878411CCAB290423F
:100D700038BF59705878042807DBB988728E52182A
:100D800093B28B4238BF4246BA80032802DB30461A
:100D900002F0B7FC98E00020587095E0401E00F18A
:100DA0009080F868081A002800F38B80728B540733
:100DB00007D54FF6FB70024072830020FA88BA8094
:100DC000F88400221A70B6F93E40B6F93C20B88883
:100DD00004EBE204A6F8404000243A685C703960F5
:100DE0008A1A317D04291ADBFC88F98CA04230D2A2
:100DF000738B1C054CBF01230223748E9E461EFB81
:100E000004FE1FFA82FC1FFA8EFEF44524BF1A4628
:100E10006243121893B2834219D31046F984B88002
:100E2000BB6AF96A0FF218723046FFF7E1FE03461B
:100E3000FB623046B96A0FF21072FFF7D9FEB86252
:100E4000F86A00280CBF4FF0FF30002011E0404648
:100E5000E4E7521893B28B422CBF114641468AB246
:100E60008242DBD3728E1218091A93B28342EED3F8
:100E7000D3E7308600203077B86A08B90021B984FA
:100E80003A8C698B8A183A84728B11051CD5F96AE1
:100E900049B980B1C168486800F0AFFBB968081A69
:100EA000002811DC07E0C968486800F0A6FBB968B3
:100EB000081A002808DC718B4FF2FF700140718323
:100EC00002E0304602F050FD706B00B3B26BE96A8D
:100ED000521A1CD5DFF8C4251368B6F93C10181A4D
:100EE00000B2A0EBE100411804B2002C48BF404220
:100EF000B1870904B6F93E208018A0EBA200F08764
:100F0000C91401FA80F0A6F8400000217163A88B93
:100F1000A96A002800F04782327D072A80F24382C6
:100F2000726AA2EB010ABAF1010343D4AAEB0000F2
:100F3000401C00283EDCAC683CB909F1280340F2B3
:100F400094520FF20C6100F04EFAC24507D309F13A
:100F5000280340F295520FF2086100F044FAA868A5
:100F600001891FFA8AFA514507DA09F1280340F28C
:100F700097520FF2FC5100F036FAA889A0EB0A0054
:100F8000A881A9680889A0EB0A0007E0AAEB010183
:100F90001FFA81FA0021208161812468618951450D
:100FA000F4DB5146204600F0BDFC706AA862296956
:100FB000486005E0891A03D5708B40F00200708309
:100FC000716AAA6A531A00F1E981308D1B1A5B1C01
:100FD000002B00F3E381914209F5F07A40F02A8179
:100FE000FFF764FE10F0030018BF012000F0EBF9DA
:100FF00080B2328D82422FD2FFF758FEC00708D54B
:1010000000F0ECF900F03E0000F0F1FA2A6900F07F
:10101000DEF9308DA88100F0E1F9800702D5A989B9
:101020004144A981A989A86800F0FDFBFFF73EFEB5
:1010300010F0030018BF012000F0C5F9AA6A716A18
:1010400012FA80F0328D8A18904205D009F12803F7
:1010500040F2CC5200F0C6F9386B002860D0FFF7A0
:1010600025FEC00707D5386B002859D001683963C1
:1010700001F080FCF7E73C6B1AE000F0B0F9C00724
:1010800012D500F0ABF980070ED4012000F0AFFAC2
:1010900029698A891043888100F0A9FA10F00300B9
:1010A00018BF012000F08FF92046246801F062FC8F
:1010B000002C34D0E1684B68A86AAA8BB4F808C049
:1010C0008218D31AB3EB0C03D7D54B68D21A002A77
:1010D00025DD4A68101AA881FFF7E8FD800703D5CF
:1010E000A9898844A5F80C80A989A86800F09BFB11
:1010F000FFF7DCFD10F0030018BF012000F063F9DA
:10110000E2685168AA6A12FA80F0884207D009F1B1
:10111000280340F2FD5209F5067100F064F93C63C2
:10112000A88BA96A09187162328D824207D209F12F
:10113000280340F207620FF2484100F054F9318D64
:10114000A88B091A3185304601F014F9A96808897D
:1011500010B129630020A860FFF7A8FDC00755D58E
:10116000697841F02001697050E0296339E0E16855
:101170004868A862E068FFF79AFD10F0030018BF06
:101180000120716A22898A1880187062E068FFF76E
:101190008EFD10F0030018BF01202289318D8018C8
:1011A000814207D209F1280340F22C6209F515713A
:1011B00000F019F9E068FFF77AFD10F0030018BF9E
:1011C0000120318D2289891A081A3085304601F0B4
:1011D000D1F86168088930B1286B0028C5D000F0CB
:1011E00045FC00206060E068FFF761FDC00708D59E
:1011F000697841F020016970307D042804BF07211F
:10120000317520683863204601F0B4FB3C6B24B193
:10121000E1684868716A8842A9D0718BCA0751BFDA
:1012200041F001014FF6FE70014041F0020171836F
:10123000BDE8F0873C6B1CB900F0C2F83863ADE044
:101240004FF00008E1684868824206D0B8F1000F0C
:1012500019D14868101A21D50EE02089A989884241
:10126000EDD200F0ADF80028E9D0B8F1000F14BFBE
:10127000C8F80000386304E000F0A2F8002816D097
:10128000386321462FE0D8F80C305868101A401EF9
:1012900004D44868101A401C002809DD2068A046C4
:1012A00018B94B68D31A002B20DC0400CAD175E0B2
:1012B00000F086F8070071D0D8F80C004268B8F842
:1012C0000830A96AD218521A002A08DD4268D8F8F4
:1012D0000400891AA8F8081089B200F0A4FAC8F826
:1012E000007021463846FFF745FC57E000F077F8DC
:1012F000C00753D400F064F8002820604ED0E068A6
:1013000042682389A96AD218521A002A06DD426867
:101310006068891A218189B200F085FAA88BAA6ACF
:10132000716A1218308D521A121A002A36DD21689D
:10133000C868FFF7BCFCC0070BD52168C868FFF779
:10134000B6FC00F03E0000F052F92168CA6800F0D7
:101350003EF8726A308DA96A82182068511A01819C
:1013600089B2406800F05FFA2068C16800F037F881
:1013700010F0030018BF012021680A898018A88393
:10138000A96A726A11FA80F0318D5118884205D02D
:1013900009F1280340F2F96200F024F83046BDE874
:1013A000F04702F0E1BA706A091A04D4308D091AC4
:1013B000491C002903DD708B40F00200708337E781
:1013C000281D01F0E5BAA9894018A88370479389C0
:1013D0004CF2FF010B4018439081704729698889BE
:1013E00000F005B95146484602F0AEBE2A49088BC6
:1013F0000246401C0883486A10B1CB8A9A4203DA3D
:10140000086A1044007D7047D21AD2B2805C7047DF
:10141000F8B5040007D11F4861A100F1280340F28C
:101420007D7202F091FE1C4EB58A5DB300203083C0
:101430000FE0FFF7DBFF0746FFF7D8FF40EA072082
:1014400040F2CD12904201DA010001D14FF4E67072
:101450006086308BA84215D2FFF7C8FF90B10228F2
:1014600008D0F6D3FFF7C2FF02280BDB318B401800
:10147000801EDCE7FFF7BAFF042803D1318B891CFB
:101480008D42D6DAF1BD0448417841F01001417037
:10149000704700005CAC0008E886002014000020C3
:1014A0007063622D3E726566757365645F64617416
:1014B00061203D3D204E554C4C0000007063622D74
:1014C0003E736E645F71756575656C656E203E2058
:1014D000300000006E6F207365676D656E74207458
:1014E0006F206672656500007463705F7265636586
:1014F0006976653A2076616C6964207175657565F9
:10150000206C656E677468007463705F72656365F4
:101510006976653A20696E76616C696420706362F1
:10152000000000007463705F726563656976653AF8
:101530002077726F6E67207374617465000000001D
:10154000756E61636B656400756E73656E74000023
:10155000696E7365672E7020213D204E554C4C00FE
:10156000696E73616E65206F666673657421000035
:101570007062756620746F6F2073686F72742100DB
:101580007463705F726563656976653A2074637031
:101590006C656E203E207263765F776E640A000091
:1015A0007463705F70617273656F70743A20696EF6
:1015B00076616C696420706362000000C24318BFEA
:1015C000002810D091F82D2093070ED54A6890423C
:1015D0000BD0896801EA00030A40934202BFC94365
:1015E0000840884201D10120704700207047014621
:1015F000000A40EA012080B270470146080200F468
:101600007F000A0A40EA016002F47F42104340EA88
:1016100011607047DFF83417DFF8342700200870B6
:10162000106800E0C06820B1416F0029FAD001F0D5
:10163000A7BB704770B5BDF91050059C0026066029
:101640004160057344730121C67302814381817334
:1016500070BD2DE9FE4F164605460F46DFF8F4969D
:10166000012E18BF412E06D0B6F5C17F0AD0B6F5BF
:10167000207F5CD08EE0002000F095F804462046E4
:10168000BDE8FE8F0024A346082002F0A9FD5FEA12
:10169000000A3BD0E81C4FF6FC710840C0F5017011
:1016A0001FFA87F880B2804588BF80460AEB0500A4
:1016B00000F110010022C91C0192890800964346DE
:1016C000BAB289005046FFF7B5FF9AF8040010F04F
:1016D000030F07D009F1580340F2011209F1280164
:1016E00000F080FAED1CAD08AD00D5F5017507D10D
:1016F00009F1580340F2031209F1940100F072FA63
:10170000002C0CBF5446CBF800A008E0DFF83C16D4
:10171000012008700CB3204600F035F91DE0A7EB5E
:1017200008070025B8B20028D346ADD1A7E7EA1CC8
:10173000F91C92088908920002EB810202F1100064
:1017400092B2B2EB810F24BF82B2B2EB810F04D30D
:1017500080B202F0FDFE040001D1002090E70020DD
:1017600001900096601900F11001C91C89083B46E0
:101770003A4689002046FFF75DFF207910F0030FFD
:1017800007D009F1580340F2231209F1C80100F013
:1017900029FA74E709F1580340F227120FF2B85101
:1017A00000F020FAD9E7FEB5174605460E46412F50
:1017B00018BF012F09D0DFF89C050FF2B85100F1D6
:1017C00058034FF4A57202F0BFFC072002F008FD99
:1017D000040001D10020FEBD002001900097334697
:1017E000324629462046FFF725FF2046FEBD3EB57E
:1017F0001C46C01C079B800801EB8005AB4201D250
:1018000000203EBD069B002B14BF03EB8000002090
:101810000223019300920B460A4601462046FFF739
:1018200009FF20463EBD2DE9F04104000E46DFF8D9
:10183000245507D105F158034FF4CC720FF24851EB
:1018400000F0F7F82789BE4238D2BF1BBFB20FF2B3
:1018500050580CE0361A2089C01B2081B6B224688B
:101860002CB905F1580340F2AF1200F0E1F860899D
:10187000B042EFDB207B10F00F0F16D1608986425B
:1018800013D0617B880710D46168091B711889B275
:10189000204602F0D1FD040007D105F1580340F2C3
:1018A000BD120FF2145100F0C4F8668160892081E6
:1018B000206808B100F067F800202060BDE8F081E2
:1018C000F8B558B9DFF88C040FF2085100F158034D
:1018D00040F2DF1202F038FC0120F2BDB1F5803F8A
:1018E000FAD2D9B104890B46E418A5B29EB2B5422A
:1018F000F2D3077B3D0607D542684942114400F107
:101900001005A94205D2E7E7002AE5D0426849421E
:1019100011444160048141895B1843810020F2BD7C
:101920000022CDE710B5DFF82C4430B904F158039C
:1019300040F24B220FF29C410DE0B1F5803F0DD2F9
:10194000B1B143898AB293420ADA04F1580340F2F2
:1019500055220FF28C41204602F0F6FB012010BD0B
:101960004468214441609B1A018943818A1A02819B
:10197000002010BD0B0058BFFFF7A2BF5B42194605
:10198000D0E70122F6E72DE9F8430400DFF8C4535D
:1019900009D105F158034FF437720FF2384100F0C6
:1019A00048F8002042E000260FF26C480FF2504940
:1019B000A07B30B905F1580340F2F122494600F00E
:1019C00038F8A07B401EA073C0B270BB617B207B47
:1019D00027688A0700F00F000DD5206938B905F196
:1019E000580340F2FF2205F1F40100F022F82169CA
:1019F0002046884716E0022802D12146082003E04D
:101A0000012804D12146072002F014FC0AE018B98D
:101A1000204602F06CFC05E005F1580340F20F325D
:101A200000F006F8761C3C00C2D1F0B2BDE8F283AB
:101A30004146284602F088BB0146002001E00968C3
:101A4000401C0029FBD180B2704770B1817B491CDA
:101A50008173C9B249B9DFF8FC020FF2D03100F14D
:101A6000580340F2423202F06FBB704770B5040079
:101A70000D46DFF8E06218BF002D0FD106F15803C4
:101A800006F58C713046BDE8704040F25A3202F0E3
:101A90005BBB21892A8951182181044620680028CE
:101AA000F7D120896189884208D006F1580340F2B5
:101AB000623206F5A871304602F046FB206840B15C
:101AC00006F1580340F263320FF27431304602F0EF
:101AD0003BFB2189288941182181256070BD10B503
:101AE0000C46FFF7C3FF2046BDE81040ADE72DE9E7
:101AF000F0470546002600270C466FF00F08DFF878
:101B00005492002D18BF002C03D0288921898842C7
:101B100006D209F1580340F2CA3209F5D2714AE0FF
:101B20006089A0EB070A6889801B504538BF824650
:101B300060686B68C1195246981902F003FE688903
:101B40005644B042574407D209F1580340F2D93203
:101B50000FF2FC2100F046F86089B84207D209F183
:101B6000580340F2DA320FF2003100F03BF860899E
:101B7000874224BF002724686889864202BF002666
:101B80002D68002D10D02CB160892189884201D1A7
:101B90002068A0B92DB168892989884201D12868B7
:101BA00090B9002CBCD11AE0CCB109F158034FF424
:101BB00079720FF2D02100F015F8404610E009F1DB
:101BC000580340F2EA3203E009F1580340F2EF32E1
:101BD00009F5EA7100F006F86FF0050000E000205A
:101BE000BDE8F087484602F0AFBA2DE9F843044655
:101BF000002688461546B146564834B900F15803C8
:101C000040F20A420FF28C2108E0B8F1000F1CD11B
:101C100000F1580340F20B4200F5007102F094FA13
:101C2000002021E0C01A80B2AFB28742C8BF074689
:101C300060689BB2C118B0B23A46404402F082FDDF
:101C40002468B944BE19ED1B0023A8B250B107E0C7
:101C500099B260890029E5D08142E3D324681B1A38
:101C6000002CF5D11FFA89F0BDE8F2832DE9F84F79
:101C70009246544600266FF00F05DFF8D8B030B911
:101C80000BF1580340F2B3420FF2282106E049B9A4
:101C90000BF1580340F2B4420FF2302100F039F852
:101CA000284634E0038993420AD20BF1580340F2EC
:101CB000B5420FF2342100F02CF84FF0FF3026E04F
:101CC0000FF244288946054614E035B90BF1580354
:101CD00040F2BD42414600F01CF86F89A74288BF20
:101CE000274668683A4609EB060102F02BFD2D688D
:101CF000E41BBE19002CE8D1564507D00BF1580360
:101D00004FF499620FF2182100F003F80020BDE8AB
:101D1000F28F584602F018BA38B515460A46298996
:101D2000FFF797FC040001D1002032BD2946FFF7E0
:101D3000DEFE40B1DFF81C007FA100F1580340F245
:101D4000245202F001FA204632BD00000388002030
:101D500020000020D8AE0008706275665F616C6C70
:101D60006F633A206572726F6E656F757320747958
:101D700070650000696E76616C69642070627566DA
:101D80005F74797065000000706275665F726561EE
:101D90006C6C6F633A207020213D204E554C4C00F6
:101DA000706275665F7265616C6C6F633A2071205A
:101DB000213D204E554C4C006D656D5F7472696D10
:101DC0002072657475726E65642071203D3D204EF1
:101DD000554C4C007020213D204E554C4C000000CD
:101DE000696E6372656D656E745F6D61676E69744F
:101DF000756465203C3D20702D3E6C656E000000D2
:101E0000706275665F667265653A20702D3E726518
:101E100066203E2030000000696E76616C696420A7
:101E20007062756620747970650000007062756676
:101E300020726566206F766572666C6F77000000B1
:101E4000702D3E6E657874203D3D204E554C4C0003
:101E50006F66667365745F746F203C3D20705F74BD
:101E60006F2D3E6C656E00006F66667365745F660D
:101E7000726F6D203C3D20705F66726F6D2D3E6C01
:101E8000656E0000705F746F20213D204E554C4CF4
:101E900000000000706275665F636F70795F70614B
:101EA000727469616C3A20696E76616C6964206253
:101EB00075660000706275665F74616B653A2069D3
:101EC0006E76616C6964206275660000706275668A
:101ED0005F74616B653A20696E76616C6964206439
:101EE0006174617074720000706275665F74616B1A
:101EF000653A20627566206E6F74206C617267654A
:101F000020656E6F75676800706275665F74616BDF
:101F1000653A20696E76616C69642070627566004E
:101F2000646964206E6F7420636F707920616C6CDB
:101F30002064617461000000706275665F636F7099
:101F400079206661696C65640000000080B502F06C
:101F500005FCC0F30D00DFF83815A0F580400880BF
:101F600001BD000010B50446207D012840F0088026
:101F7000DFF8200505A100F12803D42202F0E4F8DF
:101F80002146BDE81040012002F054B97463705F2F
:101F9000667265653A204C495354454E0000000076
:101FA00080B500F064FCDFF8B8080178491C0170C6
:101FB000C80703D5BDE8014000F07CBA01BD0000B0
:101FC0002DE9FE4304000D46DFF8C88440F0078089
:101FD00008F128034FF4AF7274A100F025F9217DB8
:101FE000DFF88068002D42D0042918BF07293ED1B0
:101FF000A06F002804BF208DB0F5006F37D0A07E01
:10200000C10606D408F128034FF4B2726FA100F0A4
:102010000BF9208B0290221DE18A00920191234648
:10202000626A216D204601F05CFC204600F0AAFDAA
:102030003069A04203D1C068306106E0084620B193
:10204000C168A142FAD1E168C1600020E0600121CD
:10205000DFF8882831701068A04204D1FFF713FA26
:102060000020BDE8FE832046FFF77CFFF8E719B1AA
:10207000022955D013D35BE0E08A0028F3D0B06882
:10208000A04203D1C068B06006E0084620B1C16834
:10209000A142FAD1E168C1600020E060E3E794B9B1
:1020A00008F1280340F211125CA100F0BDF80020F5
:1020B000017D012900F0078008F128034FF489729F
:1020C00049A100F0B1F801270FF2B43959F82700FF
:1020D00005686CB908F12803FF2208F1600100F0DF
:1020E000A3F805E0E86FA04204BF0021E967ED68AE
:1020F000002DF7D17F1C042FE8D3214606F10C00F8
:1021000000F070FD207D012805D108F12803DF22B1
:102110003BA100F089F82146022002F08BF89FE7EE
:10212000214606F1100000F05DFD012030709AE7B5
:102130002046BDE8FE4300BF38B5050040F00980E9
:10214000DFF8500335A100F128034FF4CE7201F0FF
:10215000FBFF287D032804D004280AD0072813D0C9
:1021600019E0284600F0E9FF040007D10520287592
:1021700005E0284600F0E1FF0400F7D06CB92846DE
:1021800001F09BF8204632BD284600F0D6FF04003F
:10219000F4D10920EBE7002032BD14F1010FF1D199
:1021A000688B40F008006883F5E700007463705F97
:1021B000636C6F73655F73687574646F776E3A20D4
:1021C000696E76616C696420706362007063622D71
:1021D0003E666C61677320262054465F5258434C1C
:1021E0004F534544000000007063622D3E737461DC
:1021F0007465203D3D204C495354454E000000007D
:102200007463705F667265655F6C697374656E3A5E
:1022100020214C495354454E000000007063622059
:10222000213D204E554C4C00404601F08DBF000032
:1022300080B558B9DFF828080AA100F128034FF447
:10224000F47201F081FF6FF00F0002BD017D0129E2
:1022500003D0418B41F0100141830121BDE80440CE
:10226000AEE600007463705F636C6F73653A20695B
:102270006E76616C69642070636200002DE9F84F2E
:10228000040084B08B46DFF80C020AD10DF1140D66
:10229000BDE8F04F00F1280340F23D222DA101F0EE
:1022A00053BF217D012907D100F1280340F24122CB
:1022B00000F1880101F048FF217DDFF8A8750A29A7
:1022C00009D1214607F1140000F08CFC204605B02E
:1022D000BDE8F04F46E6206D03900025666AD4F80D
:1022E00090A0D4F81080E08AA94621B960B100F02E
:1022F000D3F8E56008E08146214607F1100000F0C0
:1023000071FC01205D463870206F08B100F029FB98
:10231000E06E08B100F025FB606F08B100F021FB12
:102320005DB1208B0290211D0091CDF804902346D1
:1023300003993246204601F0D4FA2046FFF712FEF8
:102340005FEA0A0003D06FF00C014046D04705B0A9
:10235000BDE8F08F7463705F6162616E646F6E3AA6
:1023600020696E76616C6964207063620000000011
:10237000012183E7F8B50400DFF8E45608D105F140
:10238000280340F2A63205F5A671284601F0DCFECE
:10239000218D666A628E701840F20147BA42A8BF6A
:1023A0004FF48062E36AC01A821A01D46185F2BDDB
:1023B000F01A0028C8BF00260CDC9E1BB6F5803F33
:1023C000C0F0088005F1280340F2B63203A1284688
:1023D00001F0BAFE66850020F2BD00006E65775FF1
:1023E0007263765F616E6E5F776E64203C3D203075
:1023F000786666666600000038B504000D46DFF8B2
:1024000068090AD10DF1040DBDE8304000F1280340
:1024100040F2CF3214A101F097BE217D012907D1EE
:1024200000F1280340F2D33200F5B87101F08CFEC0
:10243000208D2D18ADB240F601018D4201DA8542A2
:1024400001DA4FF4006525852046FFF793FFB0F5CC
:10245000007F08D3608B40F0020060832046BDE817
:10246000324000F02ABF31BD7463705F72656376DD
:1024700065643A20696E76616C69642070636200FD
:102480001C00002018000020200000202400002054
:10249000C40000209C980008B868A04203D1C0681E
:1024A000B8607047084620B1C168A142FAD1E1681E
:1024B000C16070472DE9FE4FDFF8A863DFF8A0A5E3
:1024C0007068401C70607078401C707028E0A842F2
:1024D00007D00AF1280340F271520AF53A7100F070
:1024E000C3F9E8683061B8F1000F0BD0288B029077
:1024F0002A1DE98A009201912B466A6A21692846C1
:1025000001F0EFF92C692846ED68FFF72BFD00205C
:1025100030705FB16FF00C012046B847307828B1B9
:1025200035694FF0000901E0A946ED68002D00F083
:102530005881287D38B90AF1280340F2BE420AF5D5
:10254000E47100F091F9287D012807D10AF12803F0
:1025500040F2BF420AF5FA7100F086F9287D0A2898
:1025600007D10AF128034FF498620AF5087100F0C8
:102570007BF97078A97F8142D6D0A8774FF0000B05
:10258000287D0228D84605F1400405F1980706D1B8
:10259000A0780628A8BF4FF0010B80F29A80A0789F
:1025A0000C2819DA7878002840D0206B38B10AF16D
:1025B000280340F2D4420AF5147100F055F9E06A9C
:1025C00038B90AF1280340F2D5420AF5217100F02A
:1025D0004BF9B8780C2802DB4FF0010B6CE07978EE
:1025E0000FF6C800014411F8010C39788142BCBFD4
:1025F000491C3970397881425EDB218C00292846DC
:1026000004D101F013FA002856D107E000F0E1FCF4
:1026100020B9284600F051FE00284DD087F80080F0
:102620007878062848D8401C787045E0B5F9300025
:10263000010005D447F6FF7290421CBF401C28865B
:10264000B5F93000B4F90010884235DB284600F0B7
:10265000B8FF18B1206B78BBE06A68B3287D022808
:1026600014D0A0780C2828BF0C20B5F93C10B5F97F
:102670003E2002EBE1020FF62401085602FA00F0B8
:1026800047F6FF718842A8BF08462080A5F8308031
:10269000208C2189814238BF0846698E4900400854
:1026A0008BB2984238BF08466081688E2081A4F8BA
:1026B0002A80284600F0BFFF287D062809D1A87E81
:1026C000C10606D57068296A401A292828BF0BF16F
:1026D000010B687A010728D5287D042818BF072830
:1026E00023D17168286ADFF88426081A616D5218B0
:1026F0004FF4FA73B2FBF3F3834204D20BF1010BF4
:102700004FF0010811E0FA78DFF8643603FB02119C
:102710004FF4FA72B1FBF2F1814206D2284601F081
:1027200057F910B9F878401CF870606B60B17068A8
:10273000296AB4F900200623401A12FB03F39842D9
:1027400024BF284600F01CFB287D03280BF1010163
:1027500004D170682A6A801A292805E0092805D161
:1027600070682A6A801AF12828BF8B465FFA8BF0BE
:10277000B0B1276D284600F005FAB9F1000F3069B5
:102780003FF4A5AE854207D10AF1280340F26D520D
:102790000AF52F7100F068F8E868C9F80C00A2E6A5
:1027A000A94699F81C0099F81D10ED68401C89F89D
:1027B0001C00C0B2884213D3002089F81C0030707E
:1027C000D9F88C204AB1D9F81000494690473178A1
:1027D00000297FF4A5AE002802D1484600F06DFD27
:1027E000A4E675694FF000090FE0A84207D00AF18E
:1027F000280340F2B3520AF55B7100F035F8E8683F
:1028000070612846ED68FFF7ADFB3DB3287D0A28CF
:1028100007D00AF1280340F2A1520AF5457100F0F1
:1028200023F87068296A401AF12814D3284600F06A
:10283000A9F97069B9F1000FD7D0854207D10AF123
:10284000280340F2AF520AF5517100F00DF8E86824
:10285000C9F80C00D5E7A946ED68D6E7BDE8F78FC3
:102860000488002010000020504601F06DBC70B5B7
:10287000DFF800556878401C68702C6920E0A0776C
:10288000608BC10706D500F023F8608B4FF6FC7112
:1028900008406083608B010706D54FF6F772104041
:1028A00060832046FFF748FCE668A06F38B100213E
:1028B0002970204600F014F828780028DDD134462D
:1028C0002CB16878A17F8142D9D1E468F8E770BD66
:1028D00040F002006083204600F0EFBC1C8700201F
:1028E0002DE9F04104000AD100F048F940F20962F4
:1028F00000F5657101F028FC6FF00F002FE0A76F65
:10290000D4F884507E7B0020002DA06703463A4611
:10291000214602D02069A84701E000F056F80100E6
:102920006FF00C0812D1B00618D5208DB0F5006FED
:102930001CBF401C2085D4F884507DB12069002341
:1029400000222146A847404508D101E0404501D179
:10295000404604E0A7676FF0040000E00020BDE8F7
:10296000F08110B5002803E0046800F003F82000AF
:10297000FAD110BD10B5040009D0606808B1FFF7A6
:1029800002F82146BDE81040032001F053BC10BD01
:1029900038B5050009D1DFF8D0030FF2F83100F1A6
:1029A000280340F2826201F0CFFB032001F018FC03
:1029B000040001D1002032BD1022294601F0C2FEE0
:1029C0006068FFF742F8204632BD10B50800144693
:1029D00007D123480FF2D83100F128034FF4D36216
:1029E0000EE03CB12189FFF707FD2046FEF7CBFF43
:1029F000002010BD002BFBD1BDE81040FFF718BC34
:102A000001F0A2FB6FF00F0010BDB0B5044608281E
:102A100018BF092808D012480FF2B03100F128037E
:102A200040F2DD6201F090FBDFF8483318695F681F
:102A30000021002209E0057DA54205D1056A7D1B24
:102A40008D4224BF29460246C0680028F3D12AB12E
:102A5000BDE8B04000211046FFF710BCB0BD00003B
:102A60009C980008F8B5064600F085F80400DFF8E9
:102A7000045358D1286900280AE0418BC4680A072A
:102A800005D54FF6F77319404183FFF755FB20003A
:102A9000F3D168696C680022002106E0036AE31A3A
:102AA000934224BF1A460146C0680028F6D111B1EE
:102AB0000846FFF75DFC00F05EF8040033D1092002
:102AC000FFF7A3FF00F057F804002CD10820FFF710
:102AD0009CFF00F050F8040025D1802EA8BF7F2075
:102AE00001DA30001CD0421E2869D2B20023002136
:102AF00010E0447D944207DB0BD16F68D0F820C012
:102B0000A7EB0C079F4204D36968036ACB1A0146FE
:102B10002246C0680028ECD111B10846FFF728FC16
:102B200000F029F8044624B39C21204601F064FEFD
:102B300004F1480066754FF4E66181834FF400624A
:102B4000628522854FF4E673FF22E27263860622D5
:102B5000A4F84020E28701234FF0FF322286038051
:102B60006A6822626B78844AA3774180C264834991
:102B7000C1632046F2BD012001F032BB7A4800F16A
:102B80002803704738B504000BD101B0BDE83040D0
:102B900075480FF2482100F1280340F6510201F078
:102BA000D3BA207D00281CBF0A28012819D004F1BF
:102BB0006805286918B1FEF7E6FE00202861E8687C
:102BC00010B1204600F0DCF84FF0FF302086686836
:102BD000FFF7C7FEA868FFF7C4FE00206860A86082
:102BE000288031BD70B50C0005465F4E07D106F157
:102BF000280340F683020FF2002100F04AF83DB9A5
:102C000006F1280340F684020FF2082100F041F893
:102C10002868A04203D1C068286006E0084620B1B9
:102C2000C168A142FAD1E168C1600020E06020469D
:102C3000FFF7A8FF207D0A2809D0012825D0608B46
:102C4000C10704D5FFF744FE207D01281DD0D4F82C
:102C50006C0030B106F1280340F6930275A100F034
:102C600018F8D4F8700030B106F1280340F6940249
:102C700076A100F00EF8D4F8740030B106F1280304
:102C800040F6960278A100F004F800202075E0825A
:102C900070BD304601F058BA80B540B9DFF8C800C1
:102CA00077A100F1280340F6AF0201F04DFA314A56
:102CB000906951680818906102BD000038B505465A
:102CC0000C463AB9FFF75AFF40F6C50200F234410C
:102CD00001F03AFA002C1CBFA08C002807D028284D
:102CE000CCBF2838002080B2854288BF05462846E0
:102CF00032BD70B505000C4609D1FFF73FFF4FF418
:102D0000106200F25C4101F01FFA00E0344644B169
:102D100020682968E668884204BF2046FFF728FB40
:102D2000F4E770BD70B504000D461CBF2068002894
:102D300018D0104E31692046FFF7DBFFB1682046FE
:102D4000FFF7D7FF002D1CBF286800280AD0F068C5
:102D500006E001682268914204BF2B680360C068E6
:102D60000028F6D170BD00009C980008B84C0A00FD
:102D7000F82401001000002000DD6D00CB290008C0
:102D800010B50446606F18B1FFF7EBFD00206067D7
:102D900010BD00007463705F7365675F636F707967
:102DA0003A20696E76616C69642073656700000083
:102DB0007463705F726563765F6E756C6C3A2069E0
:102DC0006E76616C6964207063620000696E766182
:102DD0006C69642073746174650000007463705FD3
:102DE0007063625F70757267653A20696E76616CB8
:102DF00069642070636200007463705F7063625F77
:102E000072656D6F76653A20696E76616C696420D3
:102E1000706362007463705F7063625F72656D6F90
:102E200076653A20696E76616C6964207063626CC5
:102E300069737400756E73656E74207365676D6574
:102E40006E7473206C65616B696E6700756E61638B
:102E50006B6564207365676D656E7473206C656166
:102E60006B696E67000000006F6F7365712073659A
:102E7000676D656E7473206C65616B696E670000C9
:102E80007463705F6E6578745F6973733A20696EFE
:102E900076616C69642070636200000001020304C3
:102EA00005060707070707070700000003060C18B9
:102EB0003060780020B1007A002818BF01F00FBE02
:102EC000104600F0C3BF00002DE9F84F04000E4685
:102ED00092469846DFF8CCB306D10BF12803A32223
:102EE0002BA1584601F030F93EB90BF12803A4227A
:102EF0000BF16401584601F027F9DDF82890032012
:102F000009F0010701F06CF9BF00050003D130465C
:102F1000FEF739FD19E085F80A90002028606E6000
:102F20003189B94206DA0BF12803B02220A15846B4
:102F300001F00AF93089C01B288114213046FEF7C0
:102F4000EFFC20B12846FFF715FD00201EE0686861
:102F50004168E960BF08E08AFEF749FBE96808803C
:102F60007F1D208BFEF743FBE96848804046FEF753
:102F700044FBE96848604AEA073188B2FEF737FB4C
:102F8000E96888810020E96848822846BDE8F28F18
:102F90007463705F6372656174655F7365676D65A7
:102FA0006E743A20696E76616C69642070636200A9
:102FB000702D3E746F745F6C656E203E3D206F70A7
:102FC000746C656E000000000FF61C31484601F07D
:102FD000BBB82DE9FE4F05008846B24E07D106F179
:102FE000280340F24B3206F5177100F04BFCEC6EF3
:102FF000002C3AD0B8F1000F0AD106F1280340F2B4
:10300000533206F5207100F03DFC6FF005008FE0B3
:103010002189884580F0858005F132073888404550
:1030200007D206F1280340F25B320FF6DC2100F0F4
:1030300029FC208938B906F128034FF457720FF69E
:10304000D82100F01FFCA07A019080002689A6EB11
:10305000080600F0040AB6B20AEB06014FF420722B
:1030600089B200F067F85FEA00095FD060682189E3
:103070000389D9F804C05B1A43449BB232460CEB77
:103080000A01FEF7B2FDB0424DD1E06800F012F93E
:1030900000F03F0A4FF0000B5FEA0A7144BF0AF0EC
:1030A000F70A4FF0080B5FEACA7044BF2AF0010A22
:1030B0004BF0010BE16800F021FB0199C9B20091CE
:1030C00000EB08035A4649462846FFF7FDFE050077
:1030D00029D06068FEF7B0FCB98E081AB88660681F
:1030E0000189891B89B2FEF79EFB2089861B2681F8
:1030F0005046FEF77CFAE16800F0D7F86068FEF70A
:103100009BFCB98E4018B8866868FEF795FCB98EAE
:103110004018B88622682A602560286808B900210E
:10312000F986002004E04846FEF72DFC4FF0FF3002
:10313000BDE8FE8F3620FEF78CBA38B5040008D102
:1031400058480FF6E41100F1280340F2EB3200F08A
:10315000FBFFE56EA5B100E0054628680028FBD11D
:1031600000F0A7F810F0070F0AD10120FEF73FFA90
:1031700000F09AF8608B40F020006083002032BDA0
:103180002046BDE8344001212DE9F8438946002658
:1031900019F0030F0446DFF80C8107D108F128036A
:1031A00040F2124208F5297100F0F5F93CB908F136
:1031B000280340F213420FF68C1100F0ECF95FEA9D
:1031C000897048BF01264FF42072B100FFF7B2FFAB
:1031D000050014D06889B0EB860F07DA08F12803E0
:1031E00040F23A4208F53F7100F0D5F900964A46A0
:1031F000E36D29462046FFF767FE050006D1608B88
:1032000040F0800060834FF0FF3048E0287B10F0F2
:10321000030F07D008F1280340F242420FF6441191
:1032200000F0B9F9288938B108F1280340F2434287
:1032300008F54E7100F0AFF904F16C06316811B970
:10324000356004E0014608680028FBD10D6004F1F8
:103250006607002019F0030F788002D0E06D401C53
:10326000E0655FEAC97003D5618B41F0200161839D
:103270006868FEF7E1FB39884018388080B268B191
:103280007168002904BF3068002807D108F12803BD
:1032900040F2664208F5597100F07DF90020BDE862
:1032A000F283000084930008E9688A8910438881CA
:1032B0007047E8688089FEF79AB92DE9F84F040055
:1032C00084B0DFF85C8707D108F1280340F2E142BF
:1032D0000FF6A80100F05FF9207D012807D108F161
:1032E000280340F2E44208F5637100F054F9DFF876
:1032F00034070168A14200F04A8104F14806318B8D
:103300003088814234BF03910390756A6DB3221DEA
:1033100021462046FFF7CEFD5FEA000907D0002CCA
:103320001CBF2068002807D119F1040002D16FF0FA
:1033300003002DE10068206000F079F9616C2F89AD
:10334000039B401AC019834204F1980216D2194611
:10335000338B994204BFB06A002806D1507820B957
:1033600000210120117050709170A07E810740F102
:103370000981204605B0BDE8F04FF5E2002050700D
:10338000B76A27B100E0074638680028FBD100F093
:103390004EF9616C2B89039A401AC0188242C0F022
:1033A000ED80E9688889FEF722F9400707D508F122
:1033B000280340F237520FF2DC7100F0ECF8B06AEB
:1033C000A0B1628B12F0440F10D1716A29B1086864
:1033D00060B90889618E884208D2B08B30B1F08B19
:1033E000102803DA12F0A00F00F0C880207D022818
:1033F00004D01020FEF7FBF8FFF756FF3CB908F1A8
:10340000280340F2B9520FF2A47100F0C4F8284624
:1034100000F0C4F8002859D1606AFEF7EEF8E968B8
:103420008860608DFEF7E3F8E968C881606A628DA4
:103430008218E26201F1140AA87AC1070BD5221D95
:1034400049464FF4E670FFF739FC40F00170FEF793
:10345000D4F84AF8040BB4F93000002844BF002126
:103460002186606B30B9DFF8C0150868606300F032
:10347000DEF8A0636868E968426843898A1A92B2F4
:103480009B1A4381038941609A1A028100200882B5
:103490001431A87A00F0010001EB80018A4507D0C1
:1034A00008F1280340F21C620FF2207100F073F85B
:1034B0000620CDF808900190221DA17A0091E37AB0
:1034C0006868214600F0ADFD010028D128687062CF
:1034D000217D022904D0618B4FF6FC70014061838D
:1034E00000F0A5F88246FFF7E4FE10F0030118BFD4
:1034F0000121288950440818B168091A48BFB060F2
:10350000FFF7D7FE10F0030018BF012029894018EB
:103510002DD000222A60B06A30B9B56225E0618BF7
:1035200041F08001618333E000F081F8F968824660
:1035300000F0E4F8BAEB000016D504F1700A01E0DF
:10354000DAF800A0DAF8000040B100F0D6F8E96837
:10355000834600F0D3F8BBEB0000F1D4DAF80000AA
:103560002860CAF8005005E03D602F4602E028467A
:10357000FFF700FA756A002D7FF409AF706A08B989
:10358000002131844FF67F70618B01406183002000
:1035900005B0BDE8F08F404600F0D6BD10B5040080
:1035A00007D100F024F940F29A5200F56D7100F055
:1035B000CBFD6068817B012901D0012010BD002076
:1035C00010BD70B5040007D100F011F940F263623C
:1035D00000F5806100F0B8FD256F2DB303E0FFF723
:1035E000DDFF08BB2D68286800282846F7D1FFF7C3
:1035F000D5FFC8B9E06E28600020216FE166206722
:10360000618B41F40061618300F011F80646FFF719
:1036100050FE10F0030018BF0120298971184018CE
:10362000E0640020606370BD6FF0050070BDE96864
:103630004868FDF7E2BF10B5040007D100F0D7F8E5
:103640004FF4D36200F2244100F07EFD94F8420072
:10365000FF281CBF401C84F842002046BDE81040F3
:103660002BE610B5040009D1DFF8B4030FF2705156
:1036700000F1280340F2AD6200F066FD2046FFF73E
:10368000A0FF18B92046BDE81040D4E710BDF8B53A
:10369000050009D1DFF888030FF2605100F128031B
:1036A00040F2C16200F050FD05F13406F46B1CB12C
:1036B0002046FFF773FF10B16FF00500F2BD2068E0
:1036C000F0636C3500E02D68286838B100F015F81B
:1036D000E168074600F012F83F1AF4D42968216027
:1036E0002C60206808B90021B186B07BFF281CBF80
:1036F000401CB07300203060F2BDC1684868FDF71F
:103700007CBF38B5040008D1C5480FF2085100F15C
:10371000280340F2F96200F017FD04F14805A86A99
:1037200000B3A07E41071DD42046FFF7B0FFC8B903
:10373000288B2988814238BF084600EBD0704010A2
:10374000618E82B2B2EB410F38BF480001EB4101FC
:1037500011FA80F12980628B42F004026283688052
:103760000020208631BD2DE9F84F0D4682461146D6
:103770004919143199464FF4207289B22220FDF77D
:1037800068FF040030D0608905F11401884207DA2F
:1037900000F02DF840F2247200F5896100F0D4FCAD
:1037A000DDF834800C9EDDF82CB00A986768FDF7D0
:1037B0001EFF38802D065846FDF719FF7880C7F8A0
:1037C00004905046FDF719FFAD0EB8606D1D46EA36
:1037D0000536B0B2FDF70BFFB8814046FDF707FF95
:1037E000F8810020388278822046BDE8F28F8C482C
:1037F00000F128037047F8B5040084B00D46164662
:103800001F4607D1FFF7F3FF40F2427200F58F61C8
:1038100000F09AFC608D0390102102913B46228BB0
:1038200001923246E08A00902946606AFFF79BFFCA
:1038300018B1616A628D8A18E26205B0F0BD70B598
:103840000C001546764E07D106F1280340F2567259
:1038500006F5946100F016F8606800F11401143068
:1038600005F0010500EB850291420AD006F128031C
:103870003046BDE8704040F275720FF2503100F0F2
:1038800063BC70BD304600F05FBCFEB50C00054661
:1038900016461F4607D1FFF7AAFF40F2877200F5D0
:1038A000996100F051FC3A4631462846FFF702FB89
:1038B00010B96FF003050FE0002D19BFEB7AA97A5C
:1038C000FF23002102900091062001903A463146E4
:1038D000204600F0A6FB05462046FEF754F8284691
:1038E000FEBD2DE9F8431C0084B007468846164605
:1038F000DFF82C9107D109F1280340F2C4720FF2CE
:103900003431FFF763FB0C9D3DB909F1280340F208
:10391000C5720FF23C31FFF759FB4046FDF76DFED3
:10392000082103911422BDF83830BDF834100193FA
:10393000029200910346002200213046FFF713FF58
:1039400006000DD00023002231463846FFF777FFEE
:103950002B4622463146384605B0BDE8F04394E791
:1039600005B0BDE8F083000038B5040007D12C484D
:10397000BEA100F1280340F2EA7200F0E5FB206DE1
:10398000FDF73BFE0346002200212046FFF733FFF0
:10399000050006D1608B40F0030060836FF00100EA
:1039A00032BD0023002229462046FFF748FF231D91
:1039B000224629462046FFF768FF628B010012BFAE
:1039C00042F003024FF6FC710A40628332BD0000F0
:1039D00038B5050007D11248ACA100F1280340F624
:1039E000240200F0B1FB286D401EFDF706FE0346E1
:1039F000002200212846FFF7FEFE040002D14FF00E
:103A0000FF3032BD0023002221462846FFF717FF72
:103A10002B1D2A462146284601B0BDE8304034E738
:103A2000849300081C870020140000202DE9F04139
:103A3000040007D1FFF7DBFE40F64F0200F2F4412D
:103A400000F082FBE66E0EB900204BE094F89A007D
:103A5000FF281CBF401C84F89A00F068FFF72AFC7E
:103A6000C00704D531894D1EAD41ED0F00E00025A2
:103A7000F068436885F0010200212046FFF7BBFE95
:103A80005FEA000808BF4FF0FF302BD0D8F8047071
:103A90004DB11120FDF7ABFDBA894CF2FF010A4090
:103AA0001043B88109E07068318903895B1A9BB2C1
:103AB000012207F11401FEF798F8F168FFF71EFEE6
:103AC000216D401C091A48BF206500230022414691
:103AD0002046FFF7B4FE231D224641462046BDE89E
:103AE000F041D2E6BDE8F0817463705F777269746B
:103AF000653A2076616C6964207175657565206C26
:103B0000656E67746800000073706C6974203C3DDA
:103B1000206D737300000000757365672D3E6C6542
:103B20006E203E20300000007463705F73656E6429
:103B30005F66696E3A20696E76616C6964207063B5
:103B4000620000007463705F656E71756575655F16
:103B5000666C6167733A20696E76616C6964207087
:103B6000636200007365672D3E7463706864722041
:103B70006E6F7420616C69676E6564007463705F5A
:103B80006F75747075743A20696E76616C69642023
:103B900070636200525354206E6F742065787065B4
:103BA0006374656420686572652100007463705FEA
:103BB0006F75747075745F7365676D656E743A20A8
:103BC000696E76616C696420706362006F707469FD
:103BD0006F6E73206E6F742066696C6C6564000094
:103BE0007463705F7265786D69745F72746F3A2088
:103BF000696E76616C696420706362007463705FE3
:103C00007265786D69743A20696E76616C696420BA
:103C1000706362007463705F7265786D69745F666B
:103C20006173743A20696E76616C696420706362B6
:103C3000000000007463705F7273743A20696E76DE
:103C4000616C6964206C6F63616C5F697000000077
:103C50007463705F7273743A20696E76616C696424
:103C60002072656D6F74655F697000007463705FCA
:103C700073656E645F656D7074795F61636B3A2024
:103C8000696E76616C696420706362007463705F52
:103C90006B656570616C6976653A20696E76616CFA
:103CA000696420706362000080B5FEF779F95949B4
:103CB0000868002802BF58490868002805D0BDE8F8
:103CC000084000225549FA2069E05549086001BDC5
:103CD0005349086868B94F4A1068002802BF4E4A25
:103CE0001068002805D001220A60FA2000224B4902
:103CF00055E0704770B504460D461646062000F0A4
:103D00006FFA48B9BDE87040464800F16803BE222A
:103D100000F1280100F018BA002101608560C6603A
:103D20004460414B1A682AB15168641AB4F1004FDB
:103D300003D30260186070BD0A46116829B1436858
:103D40004C681B1BB3F1004FF6D30160106070BDCF
:103D500038B504466068804701F0DAF832492568D2
:103D60004B683249EB181A1AB2F1004F22462CBFA9
:103D700028181846BDE83840BCE7000038B52B4C81
:103D80002CA505F1080221464FF47A7000F007F8DF
:103D900005F110022146BDE838404FF47A7070B545
:103DA0000446B4F1804F0D46164608D31D4800F175
:103DB000680340F2291200F1A80100F0C5F901F0F2
:103DC000A7F8324629462018BDE8704092E72DE951
:103DD000F04101F09DF80646134C154D0CE00A68C1
:103DE00022608F68D1F80C806060062000F022FA13
:103DF00038001CBF4046B847287808B1FDF70AFCD8
:103E0000216809B9BDE8F0814868321AB2F1004F63
:103E1000E5D3F7E72000002024000020A93C00089B
:103E2000F887002040B90008CC870020513D0008E9
:103E300003880020FA000000A11F0008E80300002A
:103E4000FD4F0008E80300005D71000870B5DFF861
:103E5000D41204680A6800E01268AAB192F82D3002
:103E600003F005010529F7D151680029F4D09568C0
:103E700005EA040629408E4204D09907ECD4D368A1
:103E80009C42E9D1104670BDA749096859B191F823
:103E90002D2002F00502052A05D14A68002A1CBF20
:103EA00000787F2801D1002070BD084670BD80B524
:103EB000014691F82D00C2070AD54A6842B19B48D5
:103EC0004069904202D0FDF779FB08B1012002BDA4
:103ED000002002BD2DE9F843054689466F68397810
:103EE000080904284BD1880000F03C087888FDF7C9
:103EF0007EFB29898842044603D221462846FDF7E5
:103F000092FC688940453ADB2989A14237D3B8F150
:103F1000140F34DB3869854E7061F8683061307D8C
:103F200000F0F000E02808D199F82D00C10702D573
:103F3000D9F8040028B9002415E04846FFF7B7FF78
:103F400008B14C460FE0307D00247F280BD0754827
:103F5000046800E0246834B14C45FBD02046FFF7EC
:103F6000A6FF0028F6D030694946FDF727FB30B997
:103F7000307C00F0F000E02818BF002C03D1284668
:103F8000FDF701FD09E0F8884FF63F71084207D0C0
:103F9000284601F00DF9050001D100203FE06F68CF
:103FA0003460C6F80490B76041463878800000F06D
:103FB0003C00B0812846FDF7B5FC787A01280DD089
:103FC000062806D011280ED14946284601F05BFC90
:103FD0001EE049462846FCF7E9F819E0494628461C
:103FE00002F01EF814E070692146FDF7E7FA60B9A7
:103FF000307D00F0F000E02807D041462846FDF76C
:10400000C0FC0221284602F09AF82846FDF7BBFCC6
:10401000002030607060B060B08130617061BDE8D8
:10402000F2833EB5089D0C4622B100291ABF0968EB
:1040300000292C1D02959DF818109DF81C50009128
:104040000195214600F002F83EBD00002DE9F8433D
:1040500006460D46B07BDFF8D890012814469846F6
:1040600000F0088009F128034FF4557233A1484647
:1040700000F06AF8002C37D014213046FDF750FCD0
:10408000A8BB70897768142808D209F1280340F288
:10409000893209F16801484600F056F809980899F4
:1040A000787287F8088045222068DFF888803861B8
:1040B0003A7079703089FDF79AFA78800020F8809C
:1040C000B8F800904846FDF792FAB88009F101006F
:1040D000A8F800001DB918480168F96001E02868D7
:1040E000F8600021798109E07089142802DA6FF004
:1040F000010014E07168086900906C460A9B988C76
:1041000040B13189884205D222461946304601F035
:104110002BFA04E018465B69224631469847BDE811
:10412000F2830000BC870020C08700208887002021
:1041300068BB000800880020ECBE0008702D3E72AD
:104140006566203D3D2031000EB4C0B5024603A88F
:1041500000210190009101AB0121044878440C300A
:1041600002F036F806BC5DF810FB00BFDD7C0000F5
:1041700030B5816800220A6000234268D21C920890
:10418000920005E00C6814600A605B1C05882A44F4
:104190004488A342F6DB30BD38B50024304DA0B2D0
:1041A00055F82000FFF7E4FF641CA1B20929F6D3FB
:1041B00031BD10B58068046884B12168016014F0D5
:1041C000030009D0264800F1700300F14C0140F2D1
:1041D00019122430FFF7B8FF204610BD002010BD93
:1041E00010B509281E4C0ADB04F1700340F2571287
:1041F0001CA104F12400FFF7A7FF002010BD54F814
:104200002000BDE81040D4E738B504460D4615F04F
:10421000030009D0DFF848001AA100F1700340F252
:104220006D122430FFF790FFA068016829600560D7
:1042300031BD000010B50928094C0ADB04F17003F8
:1042400004F12400BDE810404FF4D57215A1FFF72A
:104250007BBF21B154F82000BDE81040D4E710BD69
:1042600020BA00086D656D705F6D616C6C6F633AAC
:104270002074797065203C204D454D505F4D41586C
:10428000000000006D656D705F667265653A206DB7
:10429000656D2070726F7065726C7920616C6967F2
:1042A0006E6564006D656D705F667265653A207459
:1042B000797065203C204D454D505F4D41580000C0
:1042C000DFF8B40300F10F01002320B5890889004D
:1042D0004B800B714FF4205201F520530A800125C9
:1042E0001D711A805A8081604360016020BD0028E2
:1042F00000D170472DE9F84510F00301DFF87C6329
:1043000006D006F1280340F2732206F18C018DE0FD
:10431000DFF86453D5F800C0A0F10804644521BF5C
:104320006A6813460C30834206D206F1280340F235
:104330007F220FF28C3179E0207930B906F1280321
:104340004FF4237206F1B00170E02188B4F802A0A6
:10435000A4EB0C000CEB010742F6010880B2D44438
:10436000414538BFC2455BD282451CBFBCF8001036
:10437000814255D197421CBF7A88824250D1002099
:104380002071AA68944238BFAC609C4207D306F102
:1043900028034FF4F0720FF2F02100F0D5F82079E5
:1043A00038B106F1280340F2E1120FF2F82100F0D3
:1043B000CBF82088404507D306F128034FF4F2726A
:1043C00006F1600100F0C0F8296822888B189C4231
:1043D00011D0187978B9686883420CD0AE689E42D3
:1043E00008BFAC60188820801888B0F5205F02D024
:1043F0008B1C671A1F5266888B19A3420ED018793E
:1044000060B9A868A04208BFAB60208818802088E7
:10441000B0F5205F02D05A1A891C0A52BDE8F18516
:1044200006F1280340F2952206F1D801304601B08A
:10443000BDE8F045FFF788BE2DE9F843CD1C4FF6E7
:10444000FC7215400C2D32BF0C2542F6010295423C
:104450002BD28D4229DB884F884E804638688045B4
:1044600002D37968884506D306F1280340F2D222A8
:104470009AA100F069F83868804562D37968884568
:104480005FD2A8F10804241A38F8082CA4B2111B32
:10449000A1F108039BB2AB4280F2098006F1280328
:1044A0004FF4397293A100F04FF800204AE09D428A
:1044B00047D000EB020900BF96A199F80400D0B9DB
:1044C000B2F5205F05D106F1280340F2F52200F095
:1044D0003BF82D1908353968BB68B9F80000ADB252
:1044E0004A194B4508BFBA600E1D00237355108052
:1044F000881C44531DE005F11400834221D32D197B
:104500000835B2F5205F05D106F1280340F21632D6
:1045100000F01AF83968BB68A8B20A189A4238BF86
:10452000BA600E1D002333548B1C38F8087C1780AA
:104530001C5228F8085C1088B0F5205F1CBF891C4D
:104540000D524046BDE8F2833046FFF7FDBD000046
:104550002DE9F843010000F08C80C21C4FF6FC717D
:1045600001EA0209B9F10C0F38BF4FF00C0902D370
:10457000B9F5205F0CD88145C0F27B803E4F396889
:10458000BD686D1AADB200E01588C9F5205295429C
:104590006FD24A19144620790028F5D12088401B93
:1045A00008384845F0D309F114018842DFF8CC807F
:1045B00020D309EB05060836B6B2B6F5205F06D162
:1045C00008F1280340F2873252A100F059F8386808
:1045D000021D00219155811923880B80821C95535F
:1045E0002680012525710988B1F5205F04D0801C43
:1045F000465201E001212171B9688C4215D17A68D7
:1046000002E03868098801440879002818BF9142FF
:10461000F7D1B960914218BF002806D008F12803ED
:1046200040F2B53240A100F02BF87868A14409F1BE
:104630000801884207D208F1280340F2BA3208F58F
:10464000867100F01DF814F003000FD008F1280364
:104650004FF46F7208F59E7100F012F808F128030C
:1046600040F2BE3208F5B67100F00AF804F1080015
:1046700000E00020BDE8F283B431002034B300082C
:104680004046FFF761BD0000706C75675F686F6C36
:1046900065733A206D656D203C2072616D5F656EBB
:1046A00064000000706C75675F686F6C65733A201A
:1046B0006D656D2D3E75736564203D3D20300000B5
:1046C0006D656D5F667265653A20696C6C656761E2
:1046D0006C206D656D6F7279000000006D656D5F17
:1046E0007472696D3A206C6567616C206D656D6FE1
:1046F000727900006D656D5F7472696D2063616E23
:10470000206F6E6C7920736872696E6B206D656DB9
:104710006F727900696E76616C6964206E65787479
:1047200020707472000000006D656D5F6D616C6CCF
:104730006F633A20216C667265652D3E7573656402
:10474000000000004AB1000011F8013B521E00F8C1
:10475000013B1CBF11F8013BF8E77047F0B4224958
:10476000224AD1F8807056681078214C214D6FF0A4
:10477000004320BB082005FB064637461E46B7FB14
:10478000F6F6401E03FB1676F5D10F46102005FB0A
:1047900006469C46B6FBFCFC03FB1C663E601E46C0
:1047A00057F804CB05FB0C4CBCFBF6F603FB16C616
:1047B000401E47F8046BEAD1CF6F0120107005FB53
:1047C00006461C4607F01F07B6FBF4F451F8270015
:1047D00003FB146641F82760C1F88000566020F0A2
:1047E0004040F0BC70470000A48500203400002049
:1047F0005FF36E3C0D661900002202F085BC30B5F7
:10480000016884684218416802EB5103C90703D567
:104810004C4401E0491C08D19A4218BF12F9011B0F
:1048200001D10C3030BD12F8015B002904F8015BA6
:10483000F0D4491EF7D5EFE770472DE9F0470500A2
:10484000DFF8BC8206D108F1280340F227120FF2EC
:10485000BC2108E0099C200008D108F128034FF48E
:10486000947208F1640100F0A2F82DE0DFF89402E0
:1048700001B9014602B9024603B903460A98089FE6
:104880000FF255260FF2A0294FF0000CC5F804C016
:10489000C5F808C0C5F80CC06E61A5F824C005F1C4
:1048A0002D0686F800C02F62C5F81CC0DFF85872CC
:1048B00097F800C086F803C02861284600F090F8F9
:1048C0002846A047002803D0002032E0401CF070AA
:1048D000F078FF2804BF0021F1707C684FF0000AD7
:1048E0001BE0AC4206D108F1280340F28B12494686
:1048F00000F05DF80AF1010ABAF5807F07DB08F1E4
:10490000280340F28D1208F1880100F050F8F07889
:1049100094F830108142D9D02468002CE1D1F0788D
:10492000FE280CBF0020401C3870786828607D602D
:104930002846BDE8F08738B504460D46FEF7F2F983
:1049400029462046BDE8344001F04FBA2DE9FC412C
:104950000C00064615460FF2E417DFF8A48105D1D6
:1049600008F1280340F2CB1200F020F82DB908F12D
:1049700028034FF4E67200F019F820687168884245
:1049800011D000902846716829606946FFF7D3FF6F
:10499000002C0CBF0020206870600121304600F020
:1049A00061F8012000E00020BDE8F681394640466C
:1049B000FFF7CABB0A6883689A4204D001B9002293
:1049C000826001207047002070470A68C3689A42DD
:1049D00004D001B90022C260012070470020704756
:1049E0002DE9FC4180460C0017461E46454808BF8D
:1049F000044607B9074606B90646002C1CBF2068C6
:104A0000002803D100F012F8012500E00025002263
:104A100039464046FFF7CEFF002231464046FFF7B9
:104A2000D4FF0DB900F002F8BDE8F3816A462146D3
:104A300040468BE7344988607047000038B93048F9
:104A400042A100F128034FF45472FFF77DBB90F8A8
:104A50002D10CA0705D441F0010180F82D10032163
:104A600000E0704738B504000D4608D1244800F135
:104A7000280340F26D3200F1DC01FFF765FB94F88A
:104A80002D1001F0050005280BD1EA0709D5606853
:104A900038B1080705D5211D2046BDE8344002F095
:104AA000D5BE31BD38B916482FA100F1280340F218
:104AB0009B32FFF749BB90F82D10CA0707D501F0CC
:104AC000FE0180F82D10090748BF02F025BC704791
:104AD00000B1C161704700006FF00B00704701002A
:104AE0000BD00948406800E0006830B190F83030E1
:104AF0005B1CDBB29942F7D1704700207047000081
:104B0000C4B40008ECBE0008B88700206E65746964
:104B1000665F6164643A20696E76616C6964206ED8
:104B200065746966000000006E6574696620616CDA
:104B3000726561647920616464656400696E7661A0
:104B40006C696420706F696E746572006E6574695B
:104B5000665F7365745F75703A20696E76616C6923
:104B600064206E65746966006E657469665F73655E
:104B7000745F646F776E3A20696E76616C69642049
:104B80006E6574696600000010B586B00446142195
:104B90006846FFF731FE2268DFF81C148A426DD1A7
:104BA00000200590DFF81404016841F000710160F5
:104BB000026802F0007205920022059905920368CE
:104BC00043F080630360016801F0806100F064F8E5
:104BD00043F000630360016801F0006100F05CF8DD
:104BE00043F004030360016801F0040100F054F88D
:104BF00043F001030360016801F0010100F04CF88B
:104C000043F002030360016801F002010591059978
:104C100005923221036843F04003036002220068DA
:104C200000F0400005900598DFF894030091019290
:104C30000021029103220B2104910392694602F0A4
:104C400053FE00F024F8862000F01AF8DFF8740311
:104C500002F04AFE00F01BF84FF4005000F010F88C
:104C6000DFF8640302F040FE00F011F84FF420502A
:104C700000F006F8DFF8540302F036FE06B010BD6F
:104C80000321009003910B22049269467047022190
:104C900001910022029270470591059905920368DF
:104CA00070472DE9F84FDFF82803C56AAE680C4657
:104CB0004FF0000B002707E061684A465144FFF7B8
:104CC00041FD24684746CB443CB32868002821D4E2
:104CD000B4F80A904FF0000A0CE00AF2F45A0BF212
:104CE000F45BAE68C146AAEB070AABEB070BA9F26F
:104CF000F4590027F01907EB090840F2F4518845F0
:104D0000DAD9CA1B61685144FFF71CFDED682868B9
:104D10000028E2D56FF0070004E05946AC4803F0E4
:104D20005FF80020AA490A6841F20403D1180C690F
:104D3000A20603D520230B6100220A60BDE8F28F92
:104D40002DE9F84F8046A24F38460024009403F026
:104D5000BEF80028A14657D1F96BD7F840A088B219
:104D600070B34FF4C17289B20020FCF772FC0400EA
:104D700026D03E6B25466A8900205346CB468246A4
:104D80000EE0ACEB0B02FFF7DDFCF668B3680AF24D
:104D9000F45A4A46AAEB0B0AA2F2F4524FF0000B67
:104DA00068680BEB020940F2F45CE145504403EB08
:104DB0000B01E6D89A46FFF7C5FC2D68002DDAD125
:104DC000386B009905E0026842F000420260491C1D
:104DD000C068BA6B9142F6D30020B86341F2080272
:104DE00039688818C368190603D58022C26000217B
:104DF00001604CB1414620460A69904720B12046E7
:104E0000BDE8F24FFCF7BFBDBDE8F18F0000000028
:104E10007FB5040007D16F4874A100F1280340F268
:104E20001222FFF791F904F12605732028727421EC
:104E300069724FF4804268486849654E6061A161BB
:104E40000020009001205C49706031604FF40060E8
:104E5000F060002131828DF8041001A8802141709A
:104E6000B2600021C1708180B161F161E1227061A5
:104E70004FF4000182703162304602F053FE18B9DF
:104E8000E87940F00400E87141F61C103218042360
:104E900006F1CC01304602F022FF042306F5A6728B
:104EA00006F14C01304602F057FF0620A8717169E7
:104EB0000878287072695078687071698878A8706D
:104EC0007169C878E87071690879287171694879E1
:104ED000687140F2DC51A184E87940F00A00E87181
:104EE000304603F0BBF800F00EF8009840F00B00DD
:104EF00000901D21009A304603F073F800F003F88B
:104F0000002004B070BD6A461D21304603F02DB864
:104F100003F066BA3EB5002104460191009194F871
:104F20002D002B4D41073ED5686880B34FF4805269
:104F30000021284603F055F803F052FA019000F0E2
:104F40004FF803F04DFA0199401A40F2E9329042CD
:104F50001DD200988106F2D56A461021284603F03A
:104F600004F8009841074CBF4FF400600020E8604F
:104F70000098810754BF4FF480400020A8600021B2
:104F8000284603F0DDF8284603F068F80EE0A8682C
:104F9000EA68C0035203000C40EA1242002128468E
:104FA00003F01FF8EBE7284603F08DF8204603F0E6
:104FB0001DFA37BD0000000000800240303802407A
:104FC00000080240000002400004024000180240B5
:104FD000C800002000BC0008DB740008A34C0008D7
:104FE0006A460121284602F0C0BF00006E65746960
:104FF0006620213D204E554C4C00000038B5DFF8AE
:105000002C074468002503E0401EE07725460C4647
:105010004CB1E07F21680028F6D120460C46294695
:1050200000F002F8F4E731BD2DE9F84F07460D46D0
:105030000026BD42DFF8F88606D108F12803AB222E
:105040000FF2F46100F05EF8002D1CBF2868B84232
:1050500006D008F12803AD220FF2E86100F052F803
:105060007C680FF2F46961688888D0B90868786054
:105070001422606807F10801FFF764FB0121204654
:1050800001F060F82046FCF7D7FC0646B6F5803FF5
:1050900004DB08F12803BC2200F033F82046FCF7BB
:1050A00072FC7C6815E06068A24604685046FCF714
:1050B000C3FC83460BEB0600B0F5803F04DB08F130
:1050C0002803CC2200F01DF850465E44FCF75BFC40
:1050D000B6B2002CE7D12946384600F04AF8DFF88E
:1050E0004C462088B04206DA08F12803D22208F1A3
:1050F0006C0100F007F82088801B20803046BDE856
:10510000F28F49464046FFF71FB82DE9F0410446AB
:1051100088460023DFF81466716800200027864661
:105120008446002917E0E2684D69954202BF226972
:105130008D69954202BF8A89A588AA4207D07F1C43
:1051400018B1C27FCD7FAA4201D30846F4460A684F
:1051500002B18E461100E6D120B11D466146FFF72F
:1051600063FF4319434501DA012FD5DC1846BDE83A
:10517000F08138B50546DFF8B4050C464168A94210
:1051800002D12A6842600CE04CB9DFF8A4050FF2A6
:10519000E85100F1280340F24512FEF7D5FF2A68D6
:1051A00022602946BDE834400420FFF743B80000E0
:1051B0002DE9F04F804685B0D8F80450287880005B
:1051C00000F03C00142852D1E888FCF710FAC40023
:1051D0006888FCF70CFA2978890001F03C018842C4
:1051E00045DBA0EB010A4046FCF726FCDFF83C75E6
:1051F0008146388848440A2809DD49462846FFF791
:1052000084FF002833D0388848440A282FDC7E6881
:105210000CE0E8687169814202BF2869B169814286
:1052200002BFB089A988884222D03668002EF0D10A
:105230000420FEF7D5FF06000CD149462846FFF7AB
:1052400064FF484504DB0420FEF7CAFF060001D1D5
:1052500000260BE020213046FFF7CEFA0F20F07732
:105260001422796831607E6000F053F96EB946E12E
:10527000E888FCF7BCF9C00407D1F089FCF7B7F95E
:10528000C00402D0142200F044F9ED882D066D0F01
:10529000A24405F00105ADF804A095F00105DFF882
:1052A00090A409D0BDF80400A4B2A04215DB4FF6CB
:1052B000EC71884280F20A8100220492012103915C
:1052C000D8F8042000925088FCF791F90446009821
:1052D0000178890001F03C0B5C45C0F2F780C08882
:1052E000FCF785F9D8F8041000910B4600211960ED
:1052F000C200009B9A80A4180099A4EB0B04CC80F8
:1053000090B2A4B284423DD37068049CDDF80CB026
:10531000029003460EE093B200F0D880B0F806C0C9
:1053200063452FD3002C1EBFE3888B424FF0000B48
:10533000036804465BB3586881881FFA82FC8C4579
:10534000E9D200990B60CCB100998A88E1888A4241
:1053500021BF80880099CA88904213D3C4F8008086
:105360000099E0888A88904218BF4FF0000B45BB37
:10537000B07FC10725D44FF0000B53E0009980881F
:10538000CA889042C0F0A280C6F80480EFE764B1FA
:10539000E08892B28242E1D20AF128034FF4DB7234
:1053A0000FF2F03100F0B2F8D8E702980028EBD005
:1053B0000AF1280340F2BF120AF1900100F0A6F8AA
:1053C000E2E7BBF1000F2AD0716831B34A689088D8
:1053D00018BB009A13461446186806E04468D08843
:1053E000A288904219D1206822460028F6D1486848
:1053F000A04207D10AF1280340F2E1120FF2B431C2
:1054000000F084F8206850B10AF1280340F2E3125A
:105410000AF1C80100F07AF801E04FF0000B1BF12F
:10542000010F53D038884844388035B1B17FBDF87A
:105430000400B08341F00101B177BBF1010F61D1EC
:10544000B08B00F11408706841680C680D46142296
:1054500006F108012846FFF775F91FFA88F0FCF7F6
:10546000C6F868800020E880688175680BE0D4F891
:10547000048014212046FCF755FA21462846FCF703
:10548000F5FAD8F80040002CF1D179688E4202D1AB
:10549000002105E0014600291CBF0868B042F9D18F
:1054A0003046FFF766FE2846FCF7C6FA0446388801
:1054B000A04206DA0AF1280340F29B22C1A100F0C3
:1054C00025F83888041B3C8028461CE03EB90AF1C8
:1054D00028034FF42A7200BFC1A100F017F87068CA
:1054E00068B97868864206D00AF1280340F2AB22F8
:1054F000BEA100F00BF800213046FFF73AFE40460F
:10550000FCF741FA002005B0BDE8F08F5046FEF7E9
:105510001BBE294606F10800FFF714B910B50400B8
:1055200007D18348B9A100F128034FF43172FEF787
:105530000BFE2146BDE810400520FEF77BBE0000B3
:1055400010B5040007D17A48B3A100F1280340F256
:10555000CE22FEF7F9FD606908B1FCF714FA204687
:10556000BDE81040DAE700002DE9F24F8AB00646A8
:10557000888C1438811000EB5170C0100790002700
:105580007068069014250178890001F03C01142907
:1055900014466FF005090DD17089DFF894B1142815
:1055A00080F20A800BF128034FF43F729DA1584608
:1055B000FEF7CAFD4846B1E00698C088FCF717F828
:1055C000C0F30C02089005923089079A0994A0F163
:1055D000140189B20391D100ADF80A1033E00A98A2
:1055E000818C03987D191439ADB28142B4BF00217A
:1055F00001210598C0F30C0011B108998A0401D566
:1056000040F40050FBF7F3FF0499C880BDF8080090
:10561000143080B2FBF7EBFF049948800020049916
:10562000488141460A98099A4469A0474046FCF7D8
:10563000AAF90399BDF80800091A89B203910798DD
:105640000599411805910398002867D0BDF80A1004
:105650008842B4BFADF80800ADF808104FF42072CE
:1056600014210E20FBF7F5FF040055D060891428A3
:1056700080F208800BF1280340F2253270A15846D1
:10568000FEF762FD069960681422FFF75BF8606818
:105690000490A046BDF8080004461FE0B8B201908F
:1056A0004B467068401900904122B9B20020FCF7C7
:1056B0009EF85FEA000A34D03046FCF7C6F91D4870
:1056C000C9F81000C9F8146051464046FCF7CEF9FD
:1056D000E41BA4B2002C02D036680025002C3FF455
:1056E0007EAF7089471B07DA0BF1280340F22D3299
:1056F0005BA15846FEF728FDB8B28442B8BF2746E2
:10570000B8B20028E8D00520FEF76AFD5FEA00097C
:10571000C4D14046FCF737F94FF0FF300BB0BDE87D
:10572000F08F4846FFF7FAFEF3E70000C487002039
:1057300054B80008415500087072657620213D205C
:1057400069707200707265762D3E6E657874203DCA
:105750003D2069707200000070627566735F66724A
:10576000656564202B20636C656E203C3D2030789D
:10577000666666660000000073616E697479206376
:105780006865636B206C696E6B6564206C6973740B
:1057900000000000636865636B20667261676D6579
:1057A0006E747320646F6E2774206F7665726C61FF
:1057B0007000000073616E69747920636865636BC3
:1057C0000000000069705F72656173735F706275DD
:1057D00066636F756E74203E3D20636C656E0000DD
:1057E00069707220213D204E554C4C006E6F742024
:1057F0006669727374616C74686F756768206A7526
:10580000737420656E717565756564007020213D47
:10581000204E554C4C00000070637220213D204EFC
:10582000554C4C006970345F6672616728293A20D4
:105830007062756620746F6F2073686F72740000F9
:1058400074686973206E6565647320612070627589
:105850006620696E206F6E65207069656365210042
:10586000702D3E6C656E203E3D20706F66660000B8
:1058700080B5FEF773FFC0F30D00DFF8A015A0F5AB
:105880008040088001BD2DE9F14F82B00E4640B93D
:10589000DFF88C350FF29851DFF88805CF22FEF73C
:1058A00053FC46B9DFF87C050FF29C5100F14C0324
:1058B000D022FEF749FC029841890829C0F2A8804D
:1058C0004468DFF8647539687869DFF85885FBF754
:1058D00075FE81462088FBF78AFE82466088FBF7CA
:1058E00086FEDFF838154C6800904FF0000B00255D
:1058F0000FE0002C1CBF206800282CD0796911F122
:10590000010F1FBFB26810401140884223D0A34648
:10591000E468002C47D0608A00998842F7D13EB9EC
:1059200008F14C03882208F184014046FEF70CFC84
:10593000207A30B1796891F83020521CD2B290426E
:10594000E5D1B9F1000FD4D1002C1FBF2068002889
:1059500079698842DBD1207C41070FD46DB1B9F160
:10596000000F0BD0786910F1010F07D1706829681A
:10597000814203D02268824200D12546A08A504548
:10598000C5D1606800281CBF39698842BFD1BBF10E
:10599000000F0ED0E168DFF88404CBF80C104168EA
:1059A000E160446005E02C0003D1706879698842A9
:1059B0002DD102980821FBF7B5FF58B9A4B1A5690C
:1059C0002DB3CDF800A0029AE06907F1100321463B
:1059D000A84721E0404600F14C034FF4B8720FF2A3
:1059E0008441FEF7B1FB12E0B9F1000F0FD1387D11
:1059F00000F0F000E0280AD0B7F90C100298083146
:105A000009B2FBF7BEFF0298032100F098FB029851
:105A1000BDE8FE4FFBF7B7BFBDE8F78F38B56FF0B5
:105A20000F05DFF8004430B904F14C0340F2D51201
:105A30000FF24C4106E051B904F14C034FF4EB7204
:105A40000FF254412046FEF77FFB284632BD838A81
:105A500001B0BDE83040021D2DE9FC4106000D46B5
:105A600014461F466FF00F08DFF8B80306D100F1A7
:105A70004C034FF406720FF238410EE035B900F1D5
:105A80004C0340F219220FF2404106E04CB900F1FC
:105A90004C0340F21A220FF24C41FEF755FB4046F0
:105AA00012E0307A10B1FFF71AF802E02046FEF754
:105AB000CDF910B96FF0030006E000903B46224696
:105AC0002946304600F002F8BDE8F6817CB56FF05B
:105AD0000F06DFF8504330B904F14C034FF4207245
